:020000040800F2
:1000000028A1002049010008DB2D0008432A000830
:10001000D92D00083D0B00085543000800000000E2
:10002000000000000000000000000000E94000089F
:10003000510C000800000000E938000835420008B3
:100040006301000863010008630100086301000800
:100050006301000863010008530C0008610C0008EC
:10006000670C00086301000863010008A50B000885
:1000700063010008630100086301000863010008D0
:1000800063010008630100086301000863010008C0
:100090006301000863010008630100086D0C00089B
:1000A00063010008630100086301000863010008A0
:1000B0006301000863010008630100086301000890
:1000C0006301000863010008630100086301000880
:1000D0006301000863010008630100086301000870
:1000E000590C00086301000863010008630100085F
:1000F0006301000863010008630100086301000850
:10010000630100086301000863010008630100083F
:1001100063010008630100089D420008A94200082D
:10012000630100086301000863010008630100081F
:10013000DFF810D000F0F0FB00480047795A0008C3
:10014000AFF3008028A100200648804706480047FA
:10015000FEE7FEE7FEE7FEE7FEE7FEE7FEE7FEE777
:10016000FEE7FEE79942000831010008202A04DB7F
:10017000203A21FA02F00021704721FA02F3D04020
:10018000C2F120029140084319467047D2B201E003
:1001900000F8012B491EFBD270470022F6E710B58C
:1001A00013460A4604461946FFF7F0FF204610BDE5
:1001B000F0B480EA0102D40F4200B2EB410F02D248
:1001C0000246084611464A0042D0C30DDDB2C1F3D3
:1001D000C752AD1A202D35DAC1F3160141F40002E1
:1001E00004B15242C5F1200602FA06F12A41104438
:1001F000B3EBD05F23D0C4B1012DA0EBC35009DC19
:10020000F0BC4FF0004202EAC352DBB200F500003E
:1002100000F070BA400000F1807000EBC350A0F114
:10022000807040EAD170490009E0490841EAC07194
:10023000A0EBC35000F50000400800EBC350F0BC39
:1002400000F04FBA6142012202EB4101001BF6E7C8
:10025000F0BC704781F00041AAE780F00040A7E7BA
:1002600080EA010210B502F00043400022D04A00AB
:100270001FD0010E01EB1261C0F35600C2F356020B
:1002800040F4000042F40002A0FB022000047F3989
:10029000140400D0401C50EA124001D44000491E12
:1002A000C2B20C0604EBD010401C4008802A02D0D9
:1002B00003E0002010BD20F00100002900DA00203A
:1002C000184310BD30B480EA010202F0004530F05E
:1002D000004221F0004013D090B1C30DD40DC2F301
:1002E0001601C0F31600E41A41F4000140F40002C4
:1002F0007D34914201D3641C00E04900002C02DAF5
:1003000030BC002070474FF400000023914201D31D
:10031000891A034340084FEA4101F7D151B1914294
:1003200002D14FF0004105E002D24FF0010101E09F
:100330006FF0010103EBC450284430BC00F0D1B988
:10034000420005D0C0F3C7525242914201DC002066
:10035000704700EBC15070472DE9FE4F804681EA9F
:100360000300C00F0C46009021F0004123F000452F
:10037000B8EB0200A94105D24046214690461C46F2
:100380000B46024623F00040104347D0270DC7F329
:100390000A00C3F30A510290401A019040286BDA18
:1003A000C3F3130040F4801B0098924620B1002351
:1003B000D2EB030A63EB0B0B01985946C0F14002E4
:1003C000504600F06DF906460D4650465946019AD2
:1003D00000F075F910EB08006141002487EA115222
:1003E00084EAE7731A4340D0009A62B3019A012A63
:1003F0004FEA075215DC001B61EB02014FF000428F
:1004000002EA0752CDE90042001C41F58011324654
:100410002B4600F0ACF903B0BDE8F08F4046214612
:10042000F9E7001B61EB0201001C41F58013001885
:100430005B412018A2F5001747EB030140EAD57095
:10044000B6196D4111E06D084FEA360645EAC075F0
:100450004FEA0752001B61EB0201001C41F58011BD
:1004600049084FEA30000019514132462B4603B08B
:10047000BDE8F04F00F06CB9009801224000002365
:10048000D0EB020263EBE073009821464FEAE07480
:10049000B8EB000061EB0401E9E783F000435BE7A0
:1004A00081F0004158E72DE9FE4F81EA030404F092
:1004B000004421F0004100944FF0000B23F0004372
:1004C00050EA01045ED052EA03045BD0C3F30A543D
:1004D000C1F30A552C44A4F2F3340194A0FB025456
:1004E000C1F3130141F48011C3F3130343F48013E8
:1004F00001FB024400FB034E840A970A44EA81543C
:1005000047EA8357A4FB076802958D0A05FB078518
:100510004FEA932C04FB0C542705029D4FEA065822
:1005200047EA1637B5EB08056EEB070C870E920EFF
:1005300047EA811742EA8312A7FB0201B6EB0B01DF
:1005400064EB00042B0D43EA0C335E1844EB1C50A3
:10055000DA465146E7FB0201C5F313044FEA0B33B9
:1005600043EA14534FEA0432019C43EA0603A4F120
:100570000C040294009CCDE900B400F0F8F803B03C
:10058000BDE8F08F00200146F9E770B521F0004387
:1005900003430CD0C1F30A550024D5EB040564EBEA
:1005A0000403D617AD1AB34102DB0020014670BD2B
:1005B000201841EB025170BDC10F80EAE070084481
:1005C000CA079623002100F095B896230022114611
:1005D00000F090B80EB5C10F80EAE0700844CA0779
:1005E000002140F233438DE80E000A460B4600F02E
:1005F000BEF803B000BD0EB540F2334102910021B8
:10060000CDE900110A460B4600F0B1F803B000BD79
:1006100000F0004220F00040C10DC0F3160040F48D
:1006200000007F2901DA00207047962903DCC1F120
:100630009601C84001E096398840002AF4D0404233
:10064000704700F0004230F000400AD0C10D01F5C3
:100650006071C0F3160042EA0151C208400711431D
:10066000704700200146704701F0004330B421F08C
:10067000004150EA010206D00A0DA2F56072C1F3F2
:100680001301002A02DC30BC00207047440F44EA0A
:10069000C104C100E01830BC00EBC25000F021B82A
:1006A000202A04DB203A00FA02F100207047914032
:1006B000C2F1200320FA03F3194390407047202A27
:1006C00006DBCB17203A41FA02F043EAE07306E07A
:1006D00041FA02F3D040C2F120029140084319468A
:1006E00070470029A8BF7047401C490008BF20F090
:1006F0000100704710B4B0FA80FC00FA0CF050EA28
:10070000010404BF10BC704749B1CCF1200421FAA8
:1007100004F411FA0CF118BF012121430843A3EBA3
:100720000C01CB1D4FEA00614FEA102042BF0020B0
:1007300010BC704700EBC35010440029A4BF10BC8C
:100740007047401C490008BF20F0010010BC7047F2
:1007500010B5141E73F1000408DA401C41F10001C9
:1007600092185B411A4301D120F0010010BD2DE920
:10077000F04D92469B4611B1B1FA81F202E0B0FA17
:1007800080F220329046FFF78BFF04460F4640EA86
:100790000A0041EA0B0153465A46084313D011465A
:1007A00053EA010019D0C8F140025046FFF7DEFCC1
:1007B00005460E46504659464246FFF771FF08432C
:1007C00005D0012004E020463946BDE8F08D002028
:1007D000054346EAE0762C4337430A986305E40A6A
:1007E000A0EB08000022FD0A44EA47540A3002D573
:1007F00000200146E9E7010510196941DDE90845D6
:1008000000196941BDE8F04DA2E72DE9F04D81EAFC
:10081000030404F0004B21F0004514464FF0000A99
:1008200023F0004150EA050220D054EA01021DD015
:10083000C5F30A570246C5F31303C1F31300C1F30E
:100840000A5640F4801543F48013A7EB0608101BEA
:10085000D64608F2FD3873EB050002D308F1010813
:1008600001E092185B41B8F1000F03DA0020014665
:10087000BDE8F08D00204FF48011064684460EE05E
:10088000171B73EB050705D3121B63EB0503064328
:100890004CEA010C49084FEA300092185B4150EADB
:1008A0000107EDD152EA030012D082EA040083EA84
:1008B0000501084305D0101BAB4106D201220023DD
:1008C00006E000224FF0004302E06FF001025310F7
:1008D0001AEB06004CEB085110EB0A0041EB0B0140
:1008E000BDE8F04DFFF734BF30B5041E71F10004D0
:1008F00004DB4FF00044404264EB0101141E73F12D
:10090000000405DB1C464FF00043524263EB040336
:10091000994208BF904230BD064C074D06E0E068A2
:1009200040F0010394E8070098471034AC42F6D336
:10093000FFF702FC90850008B08500082DE9F04D16
:1009400000231A461B1A8A4103DB00200146BDE83A
:10095000F08DC1F30A52C1F3130141F480154FF039
:10096000000BD10702D100186D41521E002704462A
:1009700040F2FF11384601EB620A3E4680460246CD
:1009800000204FF48011FFF7F1FBC2197141BB1831
:1009900046EB0100B4EB030C75EB000C04D3E41A36
:1009A00065EB000517460E46241908F101006D415C
:1009B00080463428E3DDF91946EB0600091BA841FF
:1009C00003D24FF0FF32134601E0002213461BEB27
:1009D000070046EB0A51BDE8F04DFFF7B9BE000035
:1009E00070B5044600688168C943C9071CD1816895
:1009F00021F00101816000F0D5FF05460FE000BF46
:100A000000F0D0FF401B022809D9A06A40F0100076
:100A1000A062E06A40F00100E062012070BD206841
:100A20008068C043C007EBD0002070BD10B5014600
:100A3000406A826A12F0500F05D0006A026BBDE86E
:100A4000104008461047816A41F4007181620168D4
:100A50008968C1F3424107290CD1017B51B9816AF0
:100A600021F480718162816AC90403D4816A41F0F2
:100A70000101816200F0D0F910BD10B5406A816AB1
:100A800041F040018162C16A41F00401C16200F09D
:100A9000C5F910BD10B5406A00F0BFF910BD0000E7
:100AA000F8B500260446009600688168C943C90766
:100AB00028D0816841F00101816013481349006822
:100AC000B0FBF1F000E0401E00900028FBD100F0E8
:100AD00069FF054611E000BF00F064FF401B0228DB
:100AE0000BD9A06A40F01000A062E06A40F001005B
:100AF000E06284F824600120F8BD20688068C0436B
:100B0000C007E9D10020F8BD0801002040420F00D5
:100B1000084A10B50849506802F11004084040F432
:100B20008011516001232279184603F057FB0420FD
:100B3000E06010BD14000020FFFFEF00FEE70000A2
:100B400010B5642000F064FC114C0023032260689F
:100B5000C0F3140040F400010120616003F03EFB8B
:100B600003F0FAFB68B960680023C0F3140040F496
:100B7000200103220120616003F030FB03F0ECFB55
:100B800008B1012010BD642000F042FC002010BD1F
:100B90001400002001224021014800F0FEBE0000A8
:100BA00000100140014800F099BA0000E0960020D2
:100BB00030B590F840500124AC40C56B6C600468BF
:100BC00063604368102B036803D099600068C260BB
:100BD00030BD9A600068C16030BD000070B5054648
:100BE0001A48194C007A10F0070009D0032820D0C9
:100BF000042820D0052820D0062820D0072820D07F
:100C00005FF00100FFF7D8FC01462046FFF75AFBD2
:100C100004462846FFF7D0FC6FF01601FFF790FB63
:100C20004FF07E51FFF716FB2146BDE87040FFF7FD
:100C300017BB0820E6E71020E4E72020E2E7402089
:100C4000E0E78020DEE700000000204014000020E4
:100C50007047012000F094BD4FF4006000F090BD9B
:100C6000022000F08DBD042000F08ABD202000F09D
:100C700087BD7047002200F001B8000030B50E4B70
:100C8000054601205C7A012C15D8587A00241C54A2
:100C9000587A03EB800045605D7A03F108002A541E
:100CA000587A421C5A72303008703A2048702F200F
:100CB0008870CC70002030BD1C9B00202DE9FF41C6
:100CC0000F46014600208DF80400044605468DF8C5
:100CD0000C0001F00700402141EAC0008DF8080037
:100CE0004FF47A763346012202A90B4801F09CFAB0
:100CF0000CE0012301AA03A90748009601F047FB75
:100D00009DF80400641C00EB0525E4B2BC42F0D35E
:100D100004B02846BDE8F08124970020F8B50024EF
:100D2000009490F824202546012A12D0012280F850
:100D300024204A681F23072A0DD20668776B521EAB
:100D400002EB820293409F430B6893401F437763FB
:100D500019E00220F8BD06680D2A0AD2376BD21FAF
:100D600002EB820293409F430B6893401F4337631B
:100D700009E0F76A0D3A02EB820293409F430B6849
:100D800093401F43F7620A68072306680A2A0AD3BA
:100D9000F7680A3A02EB420293409F438B68934004
:100DA0001F43F76008E0376902EB420293409F431C
:100DB0008B6893401F4337610A68102A01D0112ABB
:100DC00020D1124B02689A4217D193681B0219D4A2
:100DD000936843F4000393600968102912D10C4909
:100DE0000C4A0968B1FBF2F101EB8101490000E016
:100DF000491E00910029FBD104E0816A41F02001E5
:100E00008162012480F824502046F8BD002401406E
:100E10000801002040420F007047704770470000F3
:100E20002DE9F04104004FF000057FD0A06A0026B4
:100E300028B9E66284F82460204600F081F8204654
:100E4000FFF7CEFDA16AC90600D420B1A06A40F028
:100E50001000A0626AE0A16A21F4885141F0020109
:100E6000A162334923688B42E16904D1B1F5402F77
:100E700001D14FF40021277B4FF4807C41EA4702E7
:100E800061680A43A168614508D0012906D00021A4
:100E900094F814E0BEF1010F02D00AE06146F7E7D2
:100EA000C7B1A76A47F02007A762E76A47F00107C2
:100EB000E7625F6827F469470F435F6023689968BA
:100EC0001C4F394011439960A16861450BD001293D
:100ED00009D00CE0DFF860E0A7690EEB47370F435D
:100EE00047F40061E5E7218A0D05A5F58015216825
:100EF000CB6A23F470032B43CB62216889680F4BC4
:100F00001940914208D1E662A16A21F0020141F044
:100F10000101A162BDE8F081A06A20F0020040F06A
:100F20001000A062E06A40F00100E0620120F1E7F9
:100F3000003C0140FDF7E1FF00E0FFFFFE0E1FFF58
:100F400070B586B00025064600950195029503957B
:100F500000681A4988422ED11949886940F4007006
:100F60008861886900F400700490886940F004008A
:100F700088618869694600F00400049002200090AE
:100F8000032001900F4800F007FC104C0E48C4E904
:100F900000058020C4E902504000206180006061AB
:100FA0002020C4E90605204600F0BCF908B1FFF78F
:100FB00060FE3462666206B070BD0000002401402D
:100FC000001002400008014008000240E0960020A6
:100FD0002DE9F047894604463B4900683B4F0E1D0A
:100FE0009046884201D0B84207D1306810F4702F83
:100FF00003D001252846BDE8F08794F82400012895
:101000000CD0012084F824002046FFF749FD05009C
:101010004FF0000004D084F82400EBE70220EAE758
:10102000A16A40F60162914341F48071A162216896
:10103000B94218D1326812F4702F14D0A16A41F469
:101040008011A1623168490505D5A16A21F40051DA
:1010500041F48051A162A16AC9040AD5E16A21F074
:101060000601E16206E0A26A22F48012A2624968E7
:10107000E9E7E06284F82400216A15488862216A61
:101080001448C862216A1448086321686FF002009E
:1010900008602068816841F480718160216843465E
:1010A0004A464C31206A00F07BF920688168C1F320
:1010B00042410729816803D041F48011816099E79A
:1010C00041F4A001FAE7000000240140002801409B
:1010D0002D0A0008950A00087B0A00082DE9F05F38
:1010E000C16B0A6801680B68046C4FF0040808FAC9
:1010F00004F8844D844E854FDFF814C2DFF8149253
:10110000DFF814A2DFF814B2DFF814E218EA020FD5
:1011100065D05FEA437862D50A68920603D40A680C
:1011200022F004020A60DFF8F0814FF48062016867
:1011300008F1140813011402414524D9A9420DD025
:10114000B1420FD0B9421AD0614515D0494515D0EA
:10115000514501D1120312E0594501D104220EE09C
:10116000714501D140220AE06D4D1435A94206D0E7
:101170006B4A2832914201D11A4600E02246674963
:10118000091F0A6029E0A94213D0B14215D0B94223
:1011900020D061451BD049451BD0514502D14FF4A9
:1011A000800217E0414502D14FF0806212E05945BC
:1011B00001D104220EE0714501D140220AE0584DD0
:1011C0001435A94206D0564A2832914201D11A4616
:1011D00000E022464B4908394A60C16A71E04FF08D
:1011E000020808FA04F818EA020F70D05FEA837860
:1011F0006DD50A68920606D40A6822F00A020A60CF
:10120000012180F82110DFF810814FF4007201688D
:1012100008F1140813011402414524D9A9420DD044
:10122000B1420FD0B9421AD0614515D0494515D009
:10123000514501D1120312E0594501D102220EE0BD
:10124000714501D120220AE0354D1435A94206D05E
:10125000334A2832914201D11A4600E022462F49F2
:10126000091F0A6029E0A94213D0B14215D0B94242
:1012700020D061451BD049451BD0514502D14FF4C8
:10128000001217E0414502D14FF0007212E05945BB
:1012900001D102220EE0714501D120220AE0204D49
:1012A0001435A94206D01E4A2832914201D11A466D
:1012B00000E02246134908394A60002180F82010D6
:1012C000816A00291CD0BDE8F05F0847FFE70825C8
:1012D000A540154214D01A0712D50A6822F00E0252
:1012E0000A6090F84020C36B012101FA02F25A60B3
:1012F000816380F82110002180F82010016BE0E765
:10130000BDE8F09F080002401C000240300002408F
:1013100044000240580002406C00024008040240B1
:101320001C04024030B560B11A4B026814219A4285
:1013300009D2194B1344B3FBF1F189000164174939
:101340000AE0012030BD134B5B421344B3FBF1F1C3
:10135000890001640F490839C163022180F8211016
:10136000136843F6F0718B43F0E901142143D0E98F
:1013700002452C4321430469214344692143846984
:101380002143194311600021416301224277017713
:10139000084630BD08040240F8FFFDBF00000240CF
:1013A00070B5044690F82000002501280CD00120DB
:1013B00084F8200094F821600020012E06D084F8E3
:1013C00020000225284670BD022070BD022684F848
:1013D0002160A0632068066826F0010606602046AA
:1013E000FFF7E6FBE06A00282068016802D041F0C0
:1013F0000E0106E021F0040101602068016841F05F
:101400000A0101602068016841F001010160D9E72B
:1014100070B5044600F0C6FA0546601C02D00448C8
:101420000078044400F0BEFA401BA042FAD370BD1D
:10143000FC0000202DE9F0470125DFF82883202853
:1014400026D0414602274B68012835D00A4602289B
:101450009168126B3FD0B0F5006F56D004287DD153
:10146000D8F810000026C04C012863D0022876D09E
:10147000032875D0042871D1D8F80C000B286DD240
:10148000DFE800F089EEEDECEBEAE9E8E7E6E500FD
:10149000B648C8F8105001F055F9D8F80000401CC3
:1014A000C8F80000032801DDC8F80050D8F8000093
:1014B000BDE8F04702F08AB95B1CC8F81070C8F8A4
:1014C0000430022B01DDC8F80450D8F80400BDE850
:1014D000F04702F0A7B8491C0320C8F80810C8F864
:1014E0001000082901DDC8F80850012A07D0022A97
:1014F00051D1D8F80800BDE8F04701F0E7BFD8F8AF
:101500000800BDE8F04701F037BF0420C8F810001C
:10151000964801F017F9D8F80C00401CC8F80C00E8
:101520000A2801DDC8F80C50D8F80C00BDE8F047D7
:1015300001F0F8BDD8F80000012808D002282FD00B
:10154000032828D1BDE8F047884801F0C5B801F06C
:1015500079FA012821D004F0FFFB02E01BE035E01E
:1015600047E005F00BFD2068FFF745F80022804BAF
:10157000FEF7F2FEFFF778F87E49FEF7A3FEC8F803
:101580002850C8F81800794801F0A6F87A4801F008
:10159000A3F8C8F82C60BDE8F087C8F82C5011E01B
:1015A00003F045F818B9D8F82C0001280AD06F4884
:1015B000C8F8286001F0C6F86F4801F0C3F8C8F811
:1015C00014600CE0BDE8F04701F092BD012B0AD099
:1015D000022BE0D1182002F089FDC8F83070BDE878
:1015E000F04702F0DDB8602002F080FDC8F830500E
:1015F000F5E7C246F92540F2F31640F2E73740F22C
:10160000CF7841F28739012A10D109290CD2DFE8BD
:1016100001F00B05071C282A2C2F32003B2000E08C
:101620006320206002F0BCF801F0B0FBDAF8301063
:101630000229B0D1DAF80800092825D2DFE800F045
:10164000241E20282A2C2E3033002560EAE77AE079
:1016500070E066E05CE054E04AE040E036E02CE018
:1016600024E02660DEE72760DCE7C4F80080D9E7E5
:10167000C4F80090D6E742F20F70D2E70E2000E0E7
:101680003120206002F08CF8BDE8F04701F07EBB0D
:101690009520F6E72560F5E72660F3E72760F1E798
:1016A000C4F80080EEE7C4F80090EBE72F4801F0A3
:1016B00049F8BDE8F04701F0A7BBD8F8340010B1F5
:1016C000C8F8346044E0C8F8345047E0D8F838002F
:1016D00010B1C8F838603BE0C8F838503EE0D8F8A0
:1016E0003C0010B1C8F83C6032E0C8F83C5035E02E
:1016F000D8F8400010B1C8F8406029E0C8F8405060
:101700002CE0BDE8F047012204211C4800F045B957
:10171000D8F8440010B1C8F8446019E0C8F8445043
:101720001CE0D8F8480010B1C8F8486010E0C8F8CC
:10173000485013E0D8F84C0010B1C8F84C6007E0EE
:10174000C8F84C500AE0D8F81C0028B1C8F81C6052
:10175000BDE8F04701F05CBBC8F81C50BDE8F0479D
:1017600001F03CBB44000020D80000202C98002051
:101770000000F03F00007A44749800200008014007
:10178000044910B50A68024202D00860FFF752FE11
:1017900010BD0000140401402DE9F84FDFF8C89196
:1017A000002409F1040A0AF1040B23460F270BF168
:1017B000040ED1E00125A54006EA0502AA4276D131
:1017C000DFF8A8C14E68A6EB0C0866452BD00DDCEF
:1017D000032E34D005DC36B3012E19D0022E2FD1C2
:1017E0001BE0112E16D0122E2AD119E0B8F5881F51
:1017F00019D006DCB8F5803F15D0B8F5801F1FD191
:1018000011E0B8F5001F0ED0B8F5041F18D10AE09A
:10181000CB6815E0CB681B1D12E0CB6808330FE0E6
:10182000CB680C330CE08B682BB1012B4FF0080315
:1018300003D0456104E0042302E0056100E00023D9
:10184000FF2A01D8064601E000F104064FEA8405AC
:1018500001D9A5F12005D6F8008007FA05FC28EA91
:101860000C0803FA05F548EA0508C6F800804D683B
:10187000ED0070D53E4DAE6946F00106AE61AD6932
:1018800024F0030605F0010500953A4D06EB050C22
:10189000DCF80850A607360F07FA06F825EA08050F
:1018A000DFF8D480404503D14FF0000825E052E036
:1018B000DFF8C880404502D14FF001081DE0DFF895
:1018C000C080404502D14FF0020816E0DFF8B48036
:1018D000404502D14FF003080FE0DFF8AC804045EF
:1018E00002D14FF0040808E0DFF8A080404502D1A3
:1018F0004FF0050801E04FF0060808FA06F848EA3C
:101900000508CCF808804D68D9F80060ED034D4615
:1019100001D5164300E096432E604D68DAF800606A
:10192000AD03554601D5164300E096432E604D6841
:10193000DBF80060ED025D4601D5164300E09643FA
:101940002E604D68DEF80060AD02754601D5164385
:1019500000E096432E60641C0A681646E2407FF45D
:1019600029AFBDE8F88F000000040140000011100D
:10197000001002400000014000080140000C01403E
:10198000001001400014014000180140001C0140FB
:101990008068084000D0012070470AB1016170479B
:1019A0000904FBE70148806870470000FC00002044
:1019B000024881680278114481607047FC00002071
:1019C000074810B5016841F010010160032000F0E4
:1019D00075F8002000F006F800F024F8002010BD93
:1019E0000020024070B50D4D04464FF47A712878FE
:1019F000B1FBF0F00A490968B1FBF0F000F0B8FD66
:101A000048B9102C07D200222146501E00F036F8AB
:101A100000206C6070BD012070BD0000FC00002043
:101A2000080100200C4808B5816941F0010181617D
:101A3000816901F001010091C16941F08051C161EA
:101A4000C06900F0805000900448416821F0E061D6
:101A500041F08061416008BD00100240000001407B
:101A6000002809DB00F01F0201219140400980009D
:101A700000F1E020C0F8001170470000F0B40E4BF8
:101A80001B680C46C3F30223C3F10705042D00D9DC
:101A90000425191D072901D2002300E0DB1E0126C1
:101AA00006FA05F1491E214099409E40761E1640D7
:101AB0003143F0BC02F07EBC0CED00E0064900F0C2
:101AC000070208684FF6FF03184040EA0220034A65
:101AD00010430860704700000CED00E00000FA05BC
:101AE0002DE9F84305460078354CC00754D0E0692D
:101AF0000026C00008D4E06940F08050E061E06951
:101B0000012600F0805000902E480168C90512D4CB
:101B10000168804641F480710160FFF743FF07468A
:101B200005E000BFFFF73EFFC01B642823D8D8F8AC
:101B30000000C005F6D5206A10F4407021D0A988B5
:101B400001F4407181421CD0206A1F49012220F417
:101B500040700A6000220A602062C00711D0FFF7BF
:101B600021FF074641F2883808E000BFFFF71AFF5F
:101B7000C11B414502D90320BDE8F883206A8007D4
:101B8000F4D5206A696820F44070084320621EB1D1
:101B9000E06920F08050E0612878800705D5606812
:101BA000A96820F44040084360602878C00605D545
:101BB0006068696920F48000084360600020DBE70A
:101BC0000010024000700040400442422DE9F047FE
:101BD0000F46050061D0434E306800F00700B84260
:101BE00009D2306820F0070038433060306800F0D8
:101BF0000700B84251D128683B4C810712D54007F5
:101C000003D5606840F4E06060602878000703D581
:101C1000606840F4605060606068A96820F0F0007F
:101C2000084360602878C00728D06868012810D071
:101C30002168022810D0890700292EDA616821F076
:101C4000030101436160FFF7ADFE804641F2883930
:101C50000DE021688903EFE78901EDE7FFF7A2FEB8
:101C6000A0EB0801494502D90320BDE8F087606870
:101C7000696800F00C00B0EB810FEFD1306800F024
:101C80000700B8420BD9306820F0070038433060B5
:101C9000306800F00700B84201D00120E5E728785D
:101CA000400705D56068E96820F4E060084360609B
:101CB0002878000706D56068296920F4605040EA5A
:101CC000C100606000F018F86168084AC1F30311B0
:101CD000515CC8400649086006480068FFF782FE6C
:101CE0000020C2E70020024000100240707F000880
:101CF000080100200001002012A185B00FC98DE865
:101D00000F0014A0144A006804905168134801F0B1
:101D10000C03042B10D0082B0ED1C1F38343C9034D
:101D20001DF803000AD5516804AAC1F34041515C73
:101D30000A4A5043B0FBF1F005B0704708494843E8
:101D4000FAE7000002030405060708090A0B0C0D58
:101D50000E0F1010010200000010024000127A0065
:101D600000093D002DE9F84F040070D02078C04DE7
:101D7000C00749D06868C0F38100012807D06868AF
:101D8000C0F38100022809D16868C00306D528681D
:101D9000800339D560680028E7D035E06068B0F589
:101DA000803F0BD010B1B0F5A02F11D0286820F4DF
:101DB00080302860286820F4802002E0286840F401
:101DC00080302860606890B1FFF7ECFD06460AE0BD
:101DD000286840F480202860F0E700BFFFF7E2FDAC
:101DE000801B642873D828688003F7D50CE0FFF7C0
:101DF000D9FD064605E000BFFFF7D4FD801B64282F
:101E0000F0D828688003F7D420789A4E80074FF0E6
:101E100001094FF0000839D5686810F00C0F07D0A1
:101E20006868C0F38100022809D16868C00306D43D
:101E30002868800714D52069012808D110E020699E
:101E4000B0B1C6F80090FFF7ADFD074605E00AE126
:101E5000FFF7A8FDC01B0228C4D828688007F7D563
:101E60002868616920F0F80040EAC10028600DE0B0
:101E7000C6F80080FFF796FD074604E0FFF792FDE5
:101E8000C01B022823D828688007F7D420780007D1
:101E90002CD57948A169D9B1C0F80090FFF782FD2F
:101EA000074604E0FFF77EFDC01B02280FD8686AD2
:101EB0008007F7D571484FF4FA510068B0FBF1F094
:101EC000009000BF0098411E0091FAD20EE080E021
:101ED000C0F80080FFF766FD074604E0FFF762FDEB
:101EE000C01B022875D8686A8007F7D4207840079D
:101EF00060D5E8690027C00008D4E86940F0805048
:101F0000E861E869012700F0805000905C480168B2
:101F1000C90513D40168834641F480710160FFF75D
:101F200041FD824606E000BFFFF73CFDA0EB0A0042
:101F300064284ED8DBF80000C005F5D5E06801281C
:101F40000AD008B1052813D0286A20F001002862C1
:101F5000286A20F0040002E0286A40F001002862AC
:101F6000E06841F2883B98B1FFF71CFD82460BE028
:101F7000286A40F004002862EEE700BFFFF712FD78
:101F8000A0EB0A0159455AD8286A8007F6D50CE01B
:101F9000FFF708FD824605E0FFF704FDA0EB0A010C
:101FA00059454CD8286A8007F6D41FB1E86920F05B
:101FB0008050E861E06988B36968C1F38101022952
:101FC00044D00228C6F8608004D0FFF7EBFC04463A
:101FD00038E034E0FFF7E6FC074604E0FFF7E2FCF8
:101FE000C01B02282BD828688001F7D4206AB0F5DE
:101FF000803F05D16868A16820F40030084368601C
:10200000D4E908010843696821F474110843686041
:10201000C6F86090FFF7C6FC044606E025E000BF66
:10202000FFF7C0FC001B022809D828688001F7D5FB
:102030001BE000BFFFF7B6FC001B022802D90320FB
:10204000BDE8F88F28688001F4D40EE00128F7D0AD
:102050006868226A00F48031914204D1616A00F418
:102060007010884201D00120EAE70020E8E7000074
:102070000010024000004242800442420801002059
:102080000070004090F85100704770B5040009D00E
:10209000606A002540B125616561A56294F8510030
:1020A00040B10CE0012070BD6068B0F5827FF4D0D3
:1020B000E561F2E784F85050204600F03FF8022036
:1020C00084F851002068016821F040010160A08877
:1020D000218900F4827001F404410843A18901F4CC
:1020E00000610843217C01F002010843217D01F0D9
:1020F00001010843218B01F400710843217F01F0A5
:102100003801084394F8201001F080010843218D24
:1021100001F40051084321680860A069042101EA24
:102120001040216848602068C16921F40061C161E4
:102130006565012084F85100002070BD70B586B03F
:1021400000240094019402940394056830483149B6
:102150000222032385421AD1886940F480508861A5
:10216000886900F480500490886940F00400886118
:102170008869294D00F004000490A020CDE90002F8
:10218000694603932846FFF707FB40201DE0234ED6
:102190002348B54222D1CD6945F48045CD61CD6952
:1021A00005F4804504958D6945F008058D618969C0
:1021B000039301F0080104914FF42041CDE900128E
:1021C00069460546FFF7E8FA3014CDE90004694690
:1021D00028460294FFF7E0FA06B070BD114CA54204
:1021E000FAD1CC6944F40044CC61CC6904F40044D5
:1021F00004948C6944F008048C618969039301F0AC
:10220000080104912821CDE900126946E2E70000A7
:10221000003001400010024000080140003800403A
:10222000000C0140003C00402DE9F84F044690F8B6
:10223000500000271D461646894601280DD04FF054
:10224000010B84F850B0FFF7ADFB804694F85100C5
:10225000BA46012804D0022793E00220BDE8F88F97
:10226000B9F1000F73D0002E71D0032084F8510013
:10227000C4F854A0C4F83090A686E686C4F838A006
:10228000A4F83CA0A4F83EA0C4F844A0C4F840A020
:10229000A068B0F5004F09D12068016821F0400125
:1022A00001602068016841F4804101602068016894
:1022B000490603D4016841F040010160E068B0F5CF
:1022C000006F606803D030B3012E24D041E008B124
:1022D000012E1CD1206B21680088C86006E02068B0
:1022E0008168890709D5216B0988C160206B801C32
:1022F0002063E08E401EE08609E0FFF753FBA0EB71
:102300000800A84202D3681C01D031E07DB3E08E02
:102310000028E4D120E0206B21680078087306E0F3
:1023200020688168890709D5216B09780173206BC2
:10233000401C2063E08E401EE0860AE0FFF732FB7F
:10234000A0EB0800A84203D3681C02D010E017E0FD
:102350006DB1E08E0028E3D142462946204601F0C7
:102360002DFE08B120206065A06818B106E0FFE7E7
:10237000032706E02068C16880680090606D00B1A6
:10238000012784F851B084F850A0384666E72DE95B
:10239000F84F044690F8500000270A9E1D469246CA
:1023A0008B464FF0010901280ED0012084F850001F
:1023B000FFF7F8FA804694F85100616801280CD0C4
:1023C000B1F5827F07D102E00220BDE8F88FA16855
:1023D00009B9042801D00227C2E0BBF1000F27D0C1
:1023E000BAF1000F24D01DB394F85100042802D094
:1023F000052084F8510000206065C4F838A0E58706
:10240000A587C4F830B0E586A5862064606420689E
:102410000168490603D4016841F040010160E068A9
:10242000B0F5006F606805D0E8B3012D46D07FE0BD
:10243000012795E008B1012D39D1206B2168008872
:10244000C860206B801C2063E08E401EE0862EE07A
:102450002068816889070FD5E18E69B1B9F1010F54
:102460000AD1216B0988C160206B801C2063E08E3B
:10247000401EE0864FF0000920688168C9070CD033
:10248000E18F51B1C068A16B0880A06B801CA06374
:10249000E08F401EE0874FF00109FFF783FAA0EBC1
:1024A0000800B04200E009E001D3701C50D1E08E7A
:1024B0000028CDD1E08F0028CAD13FE0206B2168F1
:1024C00000780873206B401C2063E08E401EE0867D
:1024D0002EE02068816889070FD5E18E69B1B9F1D6
:1024E000010F0AD1216B09780173206B401C206316
:1024F000E08E401EE0864FF0000920688168C90721
:102500000CD0E18F51B1C068A16B0870A06B401C6A
:10251000A063E08F401EE0874FF00109FFF742FA09
:10252000A0EB0800B04202D3701C01D010E07EB1D5
:10253000E08E0028CDD1E08F0028CAD14246314636
:10254000204601F03BFD28B101272020606507E00F
:10255000032705E0A06818B92068C168806800906A
:10256000012084F85100002084F8500038462CE700
:1025700010B5401EB0F1807F01D3012010BD4FF097
:10258000E02460610F21601701F014FF0020A061BA
:1025900007202061002010BD7047704770B590F88B
:1025A0003C20012A2CD0012480F83C40022280F8F3
:1025B0003D2003685A689D6822F070060A6832431D
:1025C0005A60104B02689A420ED00F4B9A420BD0C1
:1025D000B2F1804F08D00D4B9A4205D00C4B9A4275
:1025E00002D00C4B9A4204D1496825F0800319436C
:1025F000916080F83D40002180F83C10084670BD95
:10260000022070BD002C0140003401400004004055
:1026100000080040000C004010B5040003D094F8FE
:102620003D0010B107E0012010BD002084F83C00FF
:10263000204600F01FF8022084F83D00211D20688C
:1026400001F038FE012084F8460084F83E0084F84A
:102650003F0084F8400084F8410084F8420084F888
:10266000430084F8440084F8450084F83D000020CD
:1026700010BD000008B5154A0168154891420ED1F9
:10268000C16941F01001C161C069002200F0100071
:10269000009011463620FFF7F1F9362010E00D4A80
:1026A000914211D1C16941F02001C161C06900228C
:1026B00000F02000009011463720FFF7DFF93720A7
:1026C000BDE80840FFF7CCB908BD0000001000408D
:1026D000001002400014004090F83D10012901D084
:1026E00001207047022180F83D100168CA6842F05D
:1026F0000102CA6000680E4988420ED00D49884226
:102700000BD0B0F1804F08D00B49884205D00B495F
:10271000884202D00A49884204D1816801F0070149
:10272000062903D0016841F00101016000207047D3
:10273000002C01400034014000040040000800402B
:10274000000C00400168CA6822F00102CA600168FA
:102750000A6A41F211131A4207D10A6A9B101A42FF
:1027600003D10A6822F001020A60012180F83D10BD
:1027700000207047704770B50446006801694FF04B
:102780000005C943890715D4C168C943890711D415
:10279000E91E0161012020772068806980072046BA
:1027A00002D0FFF7E7FF04E000F098F8204600F0C1
:1027B00096F8257720680169C943490717D4C1688D
:1027C000C943490713D46FF0040101610220207747
:1027D0002068806910F4407F204602D0FFF7CAFFCE
:1027E00004E000F07BF8204600F079F825772068B7
:1027F0000169C943090716D4C168C943090712D43E
:102800006FF008010161042020772068C06980070B
:10281000204602D0FFF7AEFF04E000F05FF820464C
:1028200000F05DF8257720680169C943C90617D40F
:10283000C168C943C90613D46FF0100101610820B3
:1028400020772068C06910F4407F204602D0FFF74F
:1028500091FF04E000F042F8204600F040F82577B0
:1028600020680169C943C90708D1C168C943C907BC
:1028700004D1891E0161204600F032F82068016908
:10288000C943090609D4C168C943090605D46FF0D4
:10289000800101612046FFF77FFE20680169C9437E
:1028A000490609D4C168C943490605D46FF04001FF
:1028B0000161204600F0C4F820680169C943890617
:1028C0000BD4C168C943890607D46FF020010161A8
:1028D0002046BDE87040FFF760BE70BD704770478E
:1028E0002DE9F04F064600684E494F4D87B0A5F1DF
:1028F0008004884252D1A868FDF767FE4B49FDF776
:10290000AFFC6FF00B01FDF71BFD4949E860FDF7D7
:10291000A1FC0121FDF714FD4649FDF7A1FCFDF7DF
:1029200077FE2861032804DA012204214248FFF7D8
:1029300034F8D4E90810FDF793FC0190A16E6868A3
:10294000FDF78EFC8346616E2868FDF789FC8146A1
:10295000216EE06FFDF784FC0746E16DA06FFDF787
:102960007FFC0090A16D606FFDF77AFC8046616D81
:10297000206FFDF775FC8246216DE06EFDF770FC5F
:1029800002460198CDE90279CDE904B0009853469A
:10299000CDE90080A16A286900F0CEFA27493068A5
:1029A00088423BD16069401C6061FDF705FEA1696A
:1029B000FDF756FC0646D4E90810FDF751FC0090DF
:1029C000A16E6868FDF74CFC8346616E2868FDF7D0
:1029D00047FC8246216EE06FFDF742FC8146E16DC7
:1029E000A06FFDF73DFC8046A16D606FFDF738FCE0
:1029F0000746616D206FFDF733FC0546216DE06EE3
:102A0000FDF72EFC04460098CDE903068DE8000E84
:102A100043463A462946204604F071FA07B0BDE81D
:102A2000F08F000000100040C40000203D0A574015
:102A3000666626400000C8420008014000140040BD
:102A40007047FEE710B5012204A1054802F084FAA0
:102A500004490028087000D0012010BD00000000CB
:102A6000200100200000002010B56420FEF7D0FCFB
:102A70000648002303224168C1F3140141F4001108
:102A80004160BDE81040012001F0A8BB1400002007
:102A90003EB500211148009101910F4A0291026058
:102AA00001248160047301754FF460220461C261E6
:102AB0004160FEF7B5F908B1FEF7DBF80720009496
:102AC000CDE9014069460548FEF728F9002801D004
:102AD000FEF7CFF83EBD000000240140B096002074
:102AE000094808B5416941F001014161406900228E
:102AF00000F00100009011460B20FEF7BFFFBDE87B
:102B000008400B20FEF7ACBF0010024010B504498E
:102B10000448FEF7AFF80249491E087010BD0000D6
:102B2000F5000020E00000202DE9F04385B00025ED
:102B30004A480095019502950395816941F010017D
:102B40008161816901F010010491816941F02001E6
:102B50008161816901F020010491816941F00401E2
:102B60008161816901F004010491816941F00801EA
:102B700081618069DFF8E88000F00800049000229D
:102B800004214046FEF709FF364F01224021384616
:102B9000FEF703FFDFF8D090012240214846FEF700
:102BA000FCFE00224FF4C0714846FEF7F6FE4FF4DB
:102BB0004340CDE900050124694602943846FEF7FA
:102BC000EBFD2A4E2020CDE90006694602943846E6
:102BD000FEF7E2FD0320CDE9000569460294244892
:102BE000FEF7DAFD04208DE8310069464046039483
:102BF000FEF7D2FD0720CDE900066946029448465B
:102C0000FEF7CAFD40208DE831006946384603943E
:102C1000FEF7C2FD4FF4C060CDE90005694602949D
:102C20004046FEF7B9FDE002CDE900066946029490
:102C30004046FEF7B1FD4FF4E0708DE83100694683
:102C400048460394FEF7A8FD0A48416841F0E06158
:102C500041F40041416005B0BDE8F083001002403E
:102C60000008014000100140000C0140000021104C
:102C70000014014000000140104810B50E490160E9
:102C80004FF48271416000218160C1604FF4007295
:102C90000161C0E905120822C0E907214162816291
:102CA0000A21C162FFF7F1F9002803D0BDE8104006
:102CB000FDF7DFBF10BD0000003001402497002069
:102CC0000F4810B50D4901604FF482714160002139
:102CD0008160C1604FF400720161C0E90512C161F9
:102CE0000162416281620A21C162FFF7CEF90028C8
:102CF00003D0BDE81040FDF7BCBF10BD0038004058
:102D00007C9700200F4810B50D4901604FF4827187
:102D1000416000218160C1604FF400720161C0E92F
:102D20000512C1610162416281620A21C162FFF73D
:102D3000ACF9002803D0BDE81040FDF79ABF10BDE4
:102D4000003C0040D49700201CB500240E4800949D
:102D50000C49019401604FF6FF11C0E9011489117B
:102D60008461C160FFF758FC08B1FDF782FF009451
:102D7000694605480194FFF711FC002801D0FDF7D2
:102D800078FF1CBD001000402C9800201CB50024CA
:102D90000F4800940D49019401604FF6FF11C0E9FE
:102DA00001140C4909688461C160FFF735FC08B162
:102DB000FDF75FFF0094694605480194FFF7EEFBBD
:102DC000002801D0FDF755FF1CBD00000014004095
:102DD00074980020D8000020FEE7704708B5002056
:102DE00003F026FE00200090102304A21A211820D0
:102DF00003F08EFEBDE8084003F08CBF4368616EAF
:102E00006E656C204F4E0000002003F011BE0000E4
:102E100008B5002003F00CFE00200090102304A24F
:102E20001A21142003F074FEBDE8084003F072BFBD
:102E30004368616E6E656C204F4646002DE9F8438D
:102E4000074690460E460025022002F023FF044666
:102E50004046FDF7DDFB2B460022214600F01CFD1D
:102E6000012000900C2322463146384603F050FEE4
:102E70002046BDE8F84302F0A7BC00002DE9F84F5A
:102E8000834614468A460027022002F003FF0646C6
:102E900026480525844202DA2548844200D30425C9
:102EA00014F1FF4F05D32D200127307084F000442A
:102EB0006D1E2046FDF7ACFB8046FDF77DFB2146ED
:102EC000FDF7CBF981463B4600223146404600F0F3
:102ED000E3FC0446EDB12E2030552846FDF77AFB81
:102EE00002460B460020134902F0CEFF07468846F3
:102EF0004846FDF7A6FB3A464346FDF7D4FAFDF7F0
:102F0000B3FBFDF785FB311900232A46491C00F06D
:102F1000C3FC012000900C2332465146584603F072
:102F2000F7FD3046BDE8F84F02F04EBC00002041EE
:102F3000000020C1000024402DE9FF4F81B005466C
:102F40000FA80E4690E8800F002003F071FD0124C9
:102F50000C2357A210210020009403F0D9FD0C236C
:102F600054A21C210020009403F0D2FD0C2352A295
:102F700028210020009403F0CBFD0C234FA2342124
:102F80000020009403F0C4FD0C234DA2102140202A
:102F9000009403F0BDFD0C234AA21C2140200094A4
:102FA00003F0B6FD0C2348A228214020009403F032
:102FB000AFFD0C2345A234214020009403F0A8FD6E
:102FC00010211120039AFFF759FF1C211120049AA8
:102FD000FFF754FF282111200E9AFFF74FFF3A46C2
:102FE00034211120FFF74AFF424610215120FFF7FC
:102FF00045FF4A461C215120FFF740FF5246282139
:103000005120FFF73BFF5A4634215120FFF736FF8E
:10301000642D07DB0C232EA200215420009403F022
:1030200077FD0FE00A2D284605DAFDF7C5FA0246BE
:103030000021602004E0FDF7BFFA024600215A207B
:10304000FFF7FCFE0C2323A200216720009403F06D
:103050005FFD0820072D03DC10231F4A009013E0BA
:10306000192D03DC10231D4A00900DE0322D03DCE6
:1030700010231B4A009007E04B2D4FF010030090E7
:1030800001DC184A00E0184A0221702003F06CFDB0
:10309000012E07D10020014600900C2313A23720F7
:1030A00003F036FD05B0BDE8F04F03F033BE00007D
:1030B00056313A0056323A0056333A0056343A0006
:1030C00056353A0056363A0056373A0056383A00E6
:1030D0003130300025000000607F0008507F00087C
:1030E000407F0008307F0008207F000852454300E1
:1030F00008B5002003F09CFC00200090102304A2DF
:103100001A212E2003F004FDBDE8084003F002BEA2
:103110004552524F52000000FF2003F089BC03F0DB
:1031200071BD000038B50546002003F081FC012484
:1031300000210C2344A20846009403F0E9FC0C2370
:1031400044A200214020009403F0E2FC0C2344A29E
:1031500010210020009403F0DBFC0C2343A21C216F
:103160000020009403F0D4FC0C2343A2282100206B
:10317000009403F0CDFC0C2342A2342100200094E3
:1031800003F0C6FC0C2342A210214020009403F05F
:10319000BFFC0C2341A21C214020009403F0B8FC8A
:1031A0000C2341A228214020009403F0B1FC0C2301
:1031B00040A234214020009403F0AAFC00210B2DF2
:1031C00014D2DFE805F013060B171C21262B30352F
:1031D0003A000C2300911CA2002103E00C23009173
:1031E0001FA210215FF0000003F092FCBDE8384000
:1031F00003F090BD0C2300911CA21C21F2E70C23CC
:1032000000911DA22821EDE70C2300911DA234217D
:10321000E8E70C2300910FA2002112E00C2300919B
:103220001BA210210DE00C2300911CA21C2108E020
:103230000C2300911CA2282103E00C2300911DA265
:1032400034214020D0E700004F4646204F4C4544F3
:10325000000000004F464620646576696365000003
:103260004368616E6E656C31000000004368616EFA
:103270006E656C32000000004368616E6E656C33F1
:10328000000000004368616E6E656C340000000051
:103290004368616E6E656C35000000004368616EC6
:1032A0006E656C36000000004368616E6E656C37B9
:1032B000000000004368616E6E656C38000000001D
:1032C000F8B5002501244FF4FA767700002003F0CA
:1032D000AFFB102319A218210F20009403F018FC53
:1032E00003F018FD3046FEF793F8102316A21821BC
:1032F0000F20009403F00CFC03F00CFD3046FEF7A9
:1033000087F8102314A218210F20009403F000FC6A
:1033100003F000FD3046FEF77BF8102312A21821BF
:103320000F20009403F0F4FB03F0F4FC3846FEF7A2
:103330006FF86D1C032DC9DBF8BD0000506C656192
:103340007365207761697400506C656173652077DF
:103350006169742E00000000506C65617365207710
:103360006169742E2E000000506C656173652077D2
:103370006169742E2E2E0000F8B50646002003F079
:1033800057FB012400210C233EA20846009403F0C1
:10339000BFFB00250C233FA234216220009503F0DF
:1033A000B7FB0C233DA210210020009403F0B0FBDA
:1033B0000C233CA21C210020009403F0A9FB0C2349
:1033C0003AA228210020009403F0A2FB0C2339A28A
:1033D00034210020009403F09BFB0C2337A2102122
:1033E0004020009403F094FB0C2335A21C214020C4
:1033F000009403F08DFB0C2332A22821402000947E
:1034000003F086FB0C2330A234214020009403F00B
:103410007FFB092E12D2DFE806F011050A151A1FEC
:1034200024292E000C231DA21021009503E00C235B
:103430001CA21C210095002003F06AFBBDE8F840A7
:1034400003F068BC0C2319A228210095F3E70C2394
:1034500018A234210095EEE70C2318A21021009544
:103460000DE00C2316A21C21009508E00C2315A2E8
:103470002821009503E00C2313A23421009540205D
:10348000DAE7000053616D706C652074696D653A10
:1034900000000000454E54455200000036306D7368
:1034A000000000003130306D730000003235306DA7
:1034B000730000003530306D730000003173000080
:1034C000327300003573000031307300F8B50646E2
:1034D000002003F0ADFA012400210C233EA208468F
:1034E000009403F015FB00250C233FA23421622039
:1034F000009503F00DFB0C233DA210210020009449
:1035000003F006FB0C233CA21C210020009403F0D6
:10351000FFFA0C233AA228210020009403F0F8FAC5
:103520000C2339A234210020009403F0F1FA0C237B
:1035300037A210214020009403F0EAFA0C2336A2AF
:103540001C214020009403F0E3FA0C2333A228212D
:103550004020009403F0DCFA0C2331A234214020F7
:10356000009403F0D5FA092E12D2DFE806F0110517
:103570000A151A1F24292E000C231DA210210095C4
:1035800003E00C231CA21C210095002003F0C0FACC
:10359000BDE8F84003F0BEBB0C2319A2282100951A
:1035A000F3E70C2318A234210095EEE70C2318A2B0
:1035B000102100950DE00C2317A21C21009508E0B6
:1035C0000C2316A22821009503E00C2314A2342119
:1035D00000954020DAE7000053616D706C6520743F
:1035E000696D653A00000000454E544552000000E8
:1035F00031356D730000000035306D730000000040
:103600003135306D730000003235306D73000000CD
:103610003530306D730000003173000032730000EC
:1036200035730000F8B50646002003F001FA0124C6
:1036300000210C2317A20846009403F069FA002524
:103640000C2318A234216220009503F061FA0C23A8
:1036500016A210210020009403F05AFA0C2319A29C
:1036600028210020009403F053FA012E02D0022EEC
:103670000CD104E00C230DA21021009503E00C23D3
:1036800010A228210095002003F042FABDE8F8407E
:1036900003F040BB53656C6563742066696C7465A8
:1036A000723A0000454E54455200000053696E6363
:1036B00033207A20746C756D69656E69656D20358F
:1036C00030487A0053696E63332062657A20746CE7
:1036D000756D69656E6961203530487A00000000BB
:1036E00038B5002003F0A4F901240C231AA200210C
:1036F0000220009403F00CFA10231DA219462D207D
:10370000009403F005FA10231BA22021142000943A
:1037100003F0FEF900240C231AA234212046009461
:1037200003F0F6F90C2318A234211520009403F0BD
:10373000EFF90C2316A234213C20009403F0E8F9A1
:103740000C2315A234216220009403F0E1F9BDE8B6
:10375000384003F0DFBA000052656A657374726125
:10376000746F72206E6170696563696100000000AA
:103770005072616361000000696E7A796E696572EA
:10378000736B61005245430046494C54455200005A
:1037900053414D504C450000454E544552000000E9
:1037A00008B5002003F044F900200090102304A283
:1037B0001821142003F0ACF9BDE8084003F0AABAC0
:1037C00053554343455346554C4C0000F8B5064607
:1037D000002003F02DF9012400210C231EA208462D
:1037E000009403F095F900250C231DA234216220DA
:1037F000009503F08DF90C231BA2102100200094EA
:1038000003F086F90C231CA21C210020009403F075
:103810007FF90C231BA228210020009403F078F9E3
:10382000012E04D0022E07D0032E0CD10FE00C2362
:103830000DA21021009503E00C230FA21C2100957E
:10384000002003F065F9BDE8F84003F063BA0C23EB
:103850000CA228210095F3E753656C6563743A0068
:10386000454E5445520000005265636F7264205308
:1038700054415254000000005265636F726420533B
:10388000544F5000444953504C4159204D454153E9
:103890005552454D454E540070B50546002004462E
:1038A000012B01D1012420465FF00A0395FBF3F6BA
:1038B00003FB165695FBF3F530360E54401C002DD5
:1038C000F4D13023904202DA0B54401CFAE7421E36
:1038D00005E00B5D8D5C0D558B54521E641C9442AB
:1038E000F7DB00220A5470BD704710B500F010FCE1
:1038F000FFF7BAF800F030FD00F00AF804460A209D
:10390000FDF786FD0A20FDF783FD204610BD00006F
:103910002DE9FF41002413498DF80C404FF47A76CD
:103920000F7B58218DF8041025468DF8084033464A
:10393000012201A90C48FEF777FC0CE0012303AA41
:1039400002A909480096FEF722FD9DF80C00641CB0
:1039500000EB0525E4B2BC42F0D304B02846BDE834
:10396000F0810000240000202497002010B50122DF
:1039700011460020FDF7A2F9012203211046FDF7B0
:103980009DF9012203210220FDF798F90C4801223C
:10399000017B0320FDF792F9012211460420FDF777
:1039A0008DF9012203210620FDF788F90122032168
:1039B0000720FDF783F9BDE810406420FDF728BD1E
:1039C000240000207CB541F6FF75FDF7E3F80024E4
:1039D000FF2000F01DFB641C0A2CF9DB00F0E6FA66
:1039E00040208DF8000000208DF801008DF80200C5
:1039F0008DF803008DF8040095208DF80500002453
:103A00006E46305D00F004FB641C062CF9DB00E020
:103A10006D1E00F0E3FA012801D0002DF8D1FDF76A
:103A2000B9F8FF2000F0F4FA0149012008707CBDCC
:103A30001000002010B5064C3220207000F0CEFAA5
:103A400000F0CCFAFF2802D021780029F8D110BD6F
:103A5000DD0000202DE9F041114D04460A200E46FC
:103A600085F8000000F0BAFAFF2804D0FE2806D03E
:103A70000020BDE8F08128780028F3D1F8E7274638
:103A8000651C00F0ABFA38706C1C00F0A7FA2870C7
:103A9000B61EF4D100F0A2FA00F0A0FA0120E8E787
:103AA000DC00002070B50C460546FFF7C3FFFF2879
:103AB00001D0FF2070BD284600F0AAFA200E00F0C9
:103AC000A7FAC4F3074000F0A3FAC4F3072000F0FC
:103AD0009FFAE0B200F09CFA0020402D06D0482D5D
:103AE00006D000F095FA4C2D06D007E0952000E0B6
:103AF000872000F08DFA01E000F070FA5FF00A0410
:103B000000F06CFA0106D5D5641E14F0FF04F7D15D
:103B100070BD000070B50E4604460025FFF78AFF11
:103B2000FF2828D1304600F073FAFD2E1FD0002662
:103B3000207800F06DFA6078A41C00F069FA761E17
:103B400016F0FF06F4D100F049FA00F047FA00BF82
:103B500000F044FA044600F01F00052803D06D1C55
:103B6000EDB2402DF4D900F039FA0028FBD004F072
:103B70001F00052801D0002070BD012070BD00008D
:103B80002DE9F84310B10120BDE8F883DFF820816A
:103B900098F80100800702D598F80100F4E7FFF7D4
:103BA00011FF00F003FA002421464020FFF77AFFBE
:103BB00001286CD13F4E642030704FF4D5714820FD
:103BC000FFF770FF01280DD000217720FFF76AFF73
:103BD00001283ED800216920FFF764FF012838D86A
:103BE00002243DE000256F4600F0F8F978556D1C81
:103BF000EDB2042DF8D39DF80200012847D19DF8BD
:103C00000300AA2843D1450700217720FFF74AFF88
:103C1000012804D829466920FFF744FF10B1307805
:103C20000028F1D1307890B300217A20FFF73AFFD5
:103C300068BB002400F0D2F93855641CE4B2042CAF
:103C4000F8D39DF80000400601D506241FE00224A9
:103C50001DE0012401E0022C02D00021412007E0F8
:103C600000217720FFF71EFF012804D800216920DA
:103C7000FFF718FF10B130780028ECD1307828B168
:103C80004FF400715020FFF70DFF00B100244546AE
:103C900088F80240FCF77EFF00F0A0F924B16878B4
:103CA00020F00100687001E00020287068786BE760
:103CB00010000020DC0000207FB515460E4610B134
:103CC000042004B070BD01244B48052E04D0407878
:103CD000C00715D00320F4E747492A7809782AB1AC
:103CE000012A07D0022A08D0042482E031B1002141
:103CF000017003E0FFF766FE00E06970002478E0E1
:103D000000F054F90B2E52D005DCE6B3012E07D09B
:103D1000022E69D142E00C2E4CD00D2E64D155E01C
:103D200000214920FFF7BEFE70BB10216846FFF757
:103D300091FE48B39DF800100120B0EB911F0AD10D
:103D40009DF808209DF8091000EB022008440004AB
:103D50008009286038E09DF805009DF80A1000F001
:103D60000F0000EBD1109DF809109DF8072001F01D
:103D7000030100EB41009DF80810890901EB820165
:103D80009DF8062001E00DE02FE002F0030201EBB8
:103D90008221C01F491C8140296015E04FF400704A
:103DA000288011E0FFF746FEFF280DD01DE000211E
:103DB000492001E000214A20FFF774FEA8B9102134
:103DC0002846FFF747FE80B100240EE000217A204C
:103DD000FFF768FE40B9002400F000F9641CE4B26B
:103DE00005F8010B042CF7D30424FCF7D3FE00F0F4
:103DF000F5F8204665E70000100000202DE9F041AD
:103E00001C4615460E4638B934B121484178C907D9
:103E100004D00320BDE8F0810420FBE78078400750
:103E200000D4550200F0C2F84FF40077012C294667
:103E300004D05220FFF736FE70B11AE05120FFF790
:103E400031FEE0B939463046FFF704FEB8B1FCF761
:103E5000A1FE00F0C3F818E039463046FFF7FAFD3E
:103E600018B1641E06F50076F6D100214C20FFF74C
:103E700019FEFCF78FFE00F0B1F824B905E0FCF75D
:103E800089FE00F0ABF80120C4E70020C2E7000083
:103E90001000002008B101207047014840787047A9
:103EA000100000202DE9F0411C4616460F4638B997
:103EB00034B1294D6878C00704D00320BDE8F081F3
:103EC0000420FBE76878400701D50220F6E7A878D0
:103ED000400700D4560200F069F8012C10D0A878F1
:103EE000800707D500217720FFF7DCFD214657200A
:103EF000FFF7D8FD31465920FFF7D4FD78B11CE01B
:103F000031465820FFF7CEFDF0B9FE213846FFF7C5
:103F100001FEC8B1FCF73EFE00F060F819E0FC219C
:103F20003846FFF7F7FD18B1641E07F50077F6D1A4
:103F3000FD210020FFF7EEFD30B1FCF72BFE00F075
:103F40004DF834B10120B9E7FCF724FE00F046F843
:103F5000F8E70020B2E700001000002070B5054629
:103F600000200446012B01D1012420465FF00A0302
:103F700095FBF3F603FB165695FBF3F530360E541E
:103F8000401C002DF4D13023904202DA0B54401C27
:103F9000FAE7421E05E00B5D8D5C0D558B54521EF9
:103FA000641C9442F7DB00220A5470BD00224021B9
:103FB0000148FDF7F2BC00000010014038B50B4687
:103FC000009204460022802100F032F8002804D03C
:103FD000606D40F020006065032038BD0EB5FF2005
:103FE0008DF8080000208DF804000848FEF74AF814
:103FF0000128FAD14FF47A700090012301AA02A996
:104000000248FEF7C4F99DF804000EBD7C9700201D
:1040100001B50648FEF736F80128FAD14FF47A7355
:10402000012269460148FEF7FFF808BD7C97002091
:104030002DE9F8431E46914688460446089DFDF743
:10404000B1FC401B351AFDF7ADFC0746254800685A
:10405000C0F3CB30684338E0701C37D0FDF7A2FCCA
:10406000C01BA84203D215B1009860B32CE02068B1
:10407000416821F0E00141606068B0F5827F0BD1BA
:10408000A068B0F5004F02D0B0F5806F04D1206871
:10409000016821F040010160A06AB0F5005F09D11C
:1040A0002068016821F4005101602068016841F432
:1040B00000510160012084F85100002084F8500074
:1040C0000320BDE8F8830025401E00902068816829
:1040D00038EA010004D000214945BDD10020F0E7B5
:1040E0000121F9E70801002070470000064A074B4C
:1040F00051681940014302F1100051600279012317
:10410000184600F06BB800001400002000FCFF000F
:104110004FF480728240094810B5094B81681940FC
:104120001143816010300123027A022000F056F81A
:10413000BDE810400A20FDF76BB900001400002014
:10414000FF00FC00064A07495068084040F400415F
:1041500002F11000516002790123184600F03EB8C8
:1041600014000020FF7FFF0001280AD008280AD091
:1041700010280AD020280AD040280AD080280AD047
:104180000AE0002208E0032206E0042204E00522FF
:1041900002E0062200E007220548064B816819402C
:1041A0001143816010300123027A022000F016B81A
:1041B00014000020F8FFFF00064A07490123906819
:1041C000084040F4802102F110009160027A022040
:1041D00000F004B814000020FFFFFB007CB514467B
:1041E00000224007800E00928DF804008DF8001028
:1041F000080A8DF80100080C8DF80200080E8DF8F1
:1042000003004FF47A752B46012201A90848FEF7F6
:104210000BF86E4608E031192B4601220448491E6E
:10422000FEF702F8641EE4B2002CF4D17CBD00005D
:1042300024970020FDF7BCBB30B595B02821684617
:10424000FBF7ABFF14210AA8FBF7A7FF18210FA863
:10425000FBF7A3FF02240120049000941020059096
:1042600000254FF46010CDE9085007946846FDF72B
:1042700079FD0AA90F2081E831006002CDE90D0522
:1042800002210AA8FDF7A2FCA00311900F940FA829
:10429000FDF726FC15B030BD704700000148FEF761
:1042A0006ABA00002C9800200148FEF764BA0000AA
:1042B00074980020F0B502681C4B1D4D1D4E1E4F1A
:1042C0001E4C4FF0804C984209D0A04207D0604568
:1042D00005D0A84203D0B04201D0B84204D122F0A8
:1042E000700E4A6842EA0E02984209D0A04207D0F6
:1042F000604505D0A84203D0B04201D0B84203D1F6
:1043000022F44075CA682A434D6922F080022A438C
:1043100002608A68C2620A688262984201D0A04242
:1043200001D10969016301214161F0BD002C014007
:104330000004004000080040000C00400034014030
:10434000FFF71EBCFFF7B8BCFFF758BDFFF7A2BDD3
:10435000FFF7A8BDFEE7000070B50B4D002441F249
:10436000883640212846FDF713FB002802D0B442CE
:1043700001DD012070BD40212846FDF709FB012029
:10438000FDF746F8641CECE700080140490050EADC
:10439000C12018BF04204A0D18BF40F0010040F2B0
:1043A000FF72B2EB515F08BF40F00200012808BF66
:1043B000052070470907090E002804DB00F1E02002
:1043C00080F80014704700F00F0000F1E02080F842
:1043D000141D70472DE9F0414F1E00EBC701044644
:1043E000D1E9000115461E4637F006020DD02A46D7
:1043F0003346FCF758F87F1E04EBC703D3E90023CC
:10440000FBF7AAFF37F00602F1D1022F25D0042FC7
:1044100013D0062F18BFBDE8F0812A463346FCF7BB
:1044200042F8D4E90A23FBF797FF2A463346FCF704
:104430003AF8D4E90823FBF78FFF2A463346FCF706
:1044400032F8D4E90623FBF787FF2A463346FCF708
:104450002AF8D4E90423FBF77FFF2A463346FCF70A
:1044600022F8D4E90223FBF777FF2A463346FCF70C
:104470001AF8D4E90023BDE8F041FBF76DBF000056
:104480000022134610460149FCF7BFB90000F03F77
:10449000FBF762BF0022134610461146FCF7B5B980
:1044A00040F2013200204FF0E041FCF76EB800000E
:1044B000024A00201107FCF768B8000001FDFFFF69
:1044C00002E008C8121F08C1002AFAD170477047DD
:1044D000002001E001C1121F002AFBD1704700003B
:1044E00001490860704700001C01002010B5044617
:1044F00000F5805000220271521EC262204601F077
:104500000FFC08B1032010BDB4F8FE01A0F52A414C
:10451000553901D0022010BD94F8360094F83910B6
:1045200094F8372040EA016194F83800000440EA2A
:10453000022001430A48B0EB012F0DD014F8521F9E
:10454000E278637841EA0261A278120442EA032227
:104550001143B0EB012F01D1002010BD012010BD8F
:104560000046415400E0401C02780AB18A42FAD168
:10457000D0B27047F0B50022174B144600F58050BA
:1045800002EB420653F826506DB10768BD420BD1CD
:1045900003EB860587686E68BE4205D12D89C68803
:1045A000B54204D000E00124521C082AE8D3082AAE
:1045B00001D079B904E05CB9022909D01220F0BD1C
:1045C00002EB420003EB80004089B0F5807F01D010
:1045D0000020F0BD1020F0BDBC98002030B50021B7
:1045E000064A0C4601EB410352F82350854201D1A3
:1045F00042F82340491C0829F4D330BDBC98002060
:1046000000F58050426A006800F580504389807848
:104610004343B1FBF3F0121D02CA19B1884203D320
:10462000401AF8E70020704711680844704710B539
:10463000012000F021F8E0B9022000F01DF8C0B917
:10464000032000F019F8A0B9042000F015F880B993
:10465000052000F011F860B9062000F00DF840B90F
:10466000072000F009F820B9082000F005F800281C
:1046700000D0012010BD000010B5104C09280CD24C
:10468000DFE800F00B050710121416181A000C488A
:1046900000E00C4800F04AFC20702078002800D090
:1046A000012010BD0848F5E70848F3E70848F1E79E
:1046B0000848EFE70848EDE70848EBE7000000206E
:1046C000501100207C210020A8310020D44100207E
:1046D000005200202C6200205872002084820020AA
:1046E00000F58050891E4269921E8A4201D800203E
:1046F0007047826A807801FB002070472DE9F04105
:1047000080460F0000F5805407D0404601F0C4F801
:10471000022809D20120BDE8F081E66816B160697F
:10472000B04207D8012605E0411CF4D061698142FE
:10473000F1D83E46354660696D1CA84202D8022574
:10474000022E0AD32946404601F0A6F838B1411C92
:10475000E1D00128DFD0B542EDD10020DBE76FF0DA
:1047600070422946404602F07BF830B957B12A46DC
:104770003946404602F074F820B101280DD00125D9
:104780002846C8E7E5602069411CF9D0401E206139
:10479000607940F001006071F2E74FF0FF35EFE71C
:1047A0002DE9F84F88460D6800E06D1C29782F2907
:1047B000FBD05C29F9D000F5805A0024DAF820708B
:1047C0002646A85D761C202817D32F2815D05C28F4
:1047D00013D0FF2C31D2012100F024FE5FEA000942
:1047E0002BD0B9F1800F04D2014668A0FFF7BAFEC2
:1047F00018BB27F81490641CE3E7AA19C8F8002036
:10480000202801D2042516E0002514E007EB44001F
:1048100030F8020C20280DD02E280BD06CB10020CF
:1048200027F814000B222021DAF8180001F071FAA1
:10483000002606E0641E002CE8D10620BDE8F88FB3
:10484000761C37F816002028FAD02E28F8D01EB192
:1048500045F0030500E0641E2CB107EB440030F87E
:10486000020C2E28F7D1002081464FF0080B009053
:1048700037F8160006F101065FEA000824D0B8F107
:10488000200F04D0B8F12E0F04D1A64202D045F07B
:104890000305EDE70098584501D2A6421AD1BBF1B5
:1048A0000B0F0FD0A64201D045F003050CD84FF0F6
:1048B000080000904FEA896026464FF00B0B4FEA44
:1048C0001069D5E745F00305DAF818000178E52905
:1048D00038D039E04046B8F1800F10D3002100F005
:1048E000A1FD5FEA000805D02B4901EB080010F894
:1048F000800C804645F00205B8F1000F04D0014657
:1049000026A0FFF72FFE20B14FF05F0845F003050A
:104910000FE0A8F14100192802D849F0020908E087
:10492000A8F16100192804D8413049F001091FFAA3
:1049300080F8DAF81820009902F801800098401CED
:10494000009095E705210170BBF1080F03D14FEAF4
:1049500089604FEA1069C9F38100032803D06FEA28
:104960000901890701D145F00205A90709D409F019
:104970000301012901D145F01005012801D145F0BD
:104980000805DAF81800C572002057E7222A3A3CD9
:104990003E3F7C7F00000000807F00082B2C3B3DC9
:1049A0005B5D0000401E082815D20C4B00EB400256
:1049B00003EB82014889B0F5807F05D008B1401E25
:1049C00080B2488110B104E00020FAE7002043F8EB
:1049D000220000207047022070470000BC98002091
:1049E0002DE9F14F82B00021029800F007FA00286B
:1049F0007AD1029DFF2005F580554FF6FF7A009091
:104A00008146A5F824A02969286801F089F90600E3
:104A10000DD16C69207848B1E17AE52801F03F01B9
:104A20006DD00A0704D50F2969D107E0042671E08B
:104A30000F2903D0B9F1000F4AD04FE0296A89B39A
:104A4000420606D5627B009220F04000EA8881464B
:104A5000AA84484535D1627B0098824231D10191C8
:104A60002078A04620F04000401E00EB8001002787
:104A7000DFF8A8B001EBC006012400BF1BF8071047
:104A800001EB0800008874B100F0E8FC0446FF2E3A
:104A900017D2019830F81600761C00F0DFFCA04217
:104AA0000FD102E02FE050450BD17F1C0D2FE5D335
:104AB00098F80000400608D53CB1019830F816007F
:104AC00018B1FF2000F0FF091DE0A9F10100F9E78E
:104AD000204602F075F9009988421BD0A869C17A76
:104AE000C9070CD10A2102E015E0491E06D314F8CB
:104AF000012B10F8013BD21AF7D000E052B14FF071
:104B0000FF09A5F824A00021029800F009F806008A
:104B10003FF479AF3046BDE8FE8F0000008000080A
:104B20002DE9F04100F580540F46E688761C3004EC
:104B3000000C38D0216991B3206800F58052538968
:104B40005B09B6FBF3F503FB1563002B67D1491C2A
:104B50002161E16821B3538992785B09B6FBF3F3D5
:104B6000521E13425BD100F097FE054601281FD963
:104B7000681C39D0206841F214010958A94248D86C
:104B80006FB1E168FFF7BAFD05000FD0012D0FD01E
:104B9000681C29D0206802F074F928BB0AE002E002
:104BA0001089B0423BD80420BDE8F0810720FBE724
:104BB0000220F9E741F20A0120680A5A002101F0B7
:104BC000A8F829462068FFF78BFD2168002701F52A
:104BD00080514FF00108C8620FE000BF80F80480E8
:104BE000206802F04EF908B10120DDE7206800F5E9
:104BF0008050C16A491C7F1CC162206800F580504A
:104C00008178B942EAD8216801F58051C96AC91B87
:104C1000C162E56029462068FFF762FD2061E680F9
:104C200041F20A012068095A4909B6FBF1F201FB79
:104C3000126100EB411060610020B5E72DE9F14FF2
:104C400084B00C22049C684604F58054A769266A47
:104C5000394601F055F89DF80B00C00718D0002028
:104C6000F872012520622B4632466946384600F02C
:104C7000D3FD0498FFF7B4FE10B96D1C642DF2D378
:104C8000642D0BD004280AD19DF80B00F87226621F
:104C90009DF80B0080070FD5002004E0072005B029
:104CA000BDE8F08F401C36F810100029FAD10D2114
:104CB0001930B0FBF1F600E00126049D00212846E2
:104CC00000F09CF8A8B94FF0000805F58057396945
:104CD000386801F025F860B978690078E5280BD0CC
:104CE00050B14FF0000801212846FFF719FF0028B6
:104CF000EDD0042812D012E008F101083046B0458A
:104D0000F1D1461E5FEA060A59D0E1880498A1EB6A
:104D10000A0100F073F8050003D06BE00720054698
:104D200068E0A06902F04CF803902169206800F067
:104D3000F7FF05005ED16169D4F8209003984873AD
:104D40000F20C8720020087388760AF0FF0BC8761F
:104D5000ABF1010000EB800202EBC00500234FF62F
:104D6000FF7E254E4A1C01E0604503D039F815004E
:104D7000F4466D1CF75CC85516F80380070A08F85E
:104D8000027000B960465B1C0D2BEDD3704502D05C
:104D900039F8150008B94BF0400B81F800B02168D4
:104DA000012001F58051087100210498FFF7B8FE39
:104DB00005001FD1AAF101005FEA000AB5D12169FF
:104DC000206800F0ADFF050014D1202200216069A9
:104DD00000F09FFFD4E905010B2200F091FFA069CC
:104DE0006169C07A00F0180008732168012001F59C
:104DF00080510871284652E70080000870B500F520
:104E000080540D46E180A368012B42D0206800F554
:104E10008050416999423CD923B90178032906D1D0
:104E2000436A23B1418980784E09464312E00189E3
:104E3000A9422ED9406A13E000F02EFD0346401C23
:104E400025D0022B25D3206800F580504069984278
:104E50001FD9AD1B2068B5421946EDD2FFF740FCC3
:104E6000E360B0B121680A4601F580514B895B09C6
:104E7000B5FBF3F31844206148894009B5FBF0F114
:104E800000FB115002EB40106061002070BD01205A
:104E900070BD022070BD0000084910B50B5C0022F7
:104EA00053B901220A540A1801EB8000127A4068B3
:104EB0000168104688470246104610BD1C9B002022
:104EC00030B4054C231804EB80001B7A4068046959
:104ED0001846A44630BC60471C9B002030B4054DEA
:104EE0002C1805EB8000247A406885682046AC4683
:104EF00030BC60471C9B0020044A111802EB800064
:104F0000097A406842680846104700001C9B002050
:104F100030B4054D2C1805EB8000247A4068C56834
:104F20002046AC4630BC60471C9B002010B50446B0
:104F300000F044F900280DD1204601F0CBFF0028F5
:104F400008D104F58054A06AFFF72CFD002801D198
:104F50000021216010BD00002DE9F74181B090468D
:104F600002980090684600F011FD040003D50B2064
:104F700004B0BDE8F081104E002756F824502DB142
:104F80002846FFF72BFB05F580552F700198002868
:104F900003D000BF4FF480510F5446F8240002D0D4
:104FA000B8F1010F01D00020E2E7002202A901A818
:104FB00000F066FADCE70000100100202DE9F74F51
:104FC000ADF5825D98B100F580564FF0000802F013
:104FD0001F0741F2440127F0010269440DF580509A
:104FE000C6F8008000F04CFA040006D0DFE009208B
:104FF00013B00DF5805DBDE8F08F41F228010DF58D
:105000008050694481616C490162EB46416C5846AD
:1050100000F0A4FB04000DF5805045690BD11DB1D3
:10502000780803D0012102E0062404E0002158465C
:10503000FFF7A0FA044617F01C0F75D04FF0010AD5
:10504000ECB1042C14D15C490020603902E0401C12
:10505000082805D200EB400251F82220002AF6D1A0
:10506000082804D05846FFF7E9FD044600E0122462
:105070000DF5805047F00807456954B197E0E87A8C
:1050800010F0110F01D0072491E0780701D5082412
:105090008DE0380756D500F077FCA873010AE97354
:1050A000010C2974000E687485F80B8085F81C804B
:1050B00085F81D8085F81E800DF5805085F81F80CD
:1050C0000068294600F0CCFC81460021284601F00A
:1050D0006FFE0DF58050B9F1000F006800F58050AB
:1050E00080F804A02CD00DF580504946006800F5EA
:1050F0008050D0F82CA00DF58050006801F03EFCE7
:10510000040054D10DF58050A9F10101006800F5AB
:105110008050C1600DF580505146006800F000FEDF
:1051200004000BD043E0FFE7F4BBE87AC10601D5E9
:1051300004243CE0B90701D5C007A4D1380701D544
:1051400047F020070DF58050006800F58050C06AD8
:10515000C6E90705780801D0012100E00021584682
:1051600000F032FCB06220B3B7710DF5805086F8C4
:10517000078047460068294600F072FC3061287FAE
:10518000E97F6A7F40EA0160A97F090441EA0221C0
:105190000843C6E90270B7610DF580507762006878
:1051A000306000F5805000E001E0C088B08020460B
:1051B0001EE70224FBE700001C99002070B505469D
:1051C00001F088FE002811D105F58054A1798A06E6
:1051D0000CD548060FD52068012300F580502946DC
:1051E0004078A269FFF794FE08B1012070BDA07954
:1051F00020F04000A071E169206800F091FD0028D6
:10520000F4D1256AE87A40F02000E872207B287704
:10521000A089000A6877E068000CA877E068000EB3
:10522000E8772846216901F0C3FD00F0ADFBA875C1
:10523000010AE975010C2976000E68760020A87431
:10524000E874A079012120F02000A071206800F509
:10525000805001712068BDE8704001F0BEBD2DE9AD
:10526000FC5F88460021994615468346196001F087
:1052700031FE002808D10BF58054E079002803D1D5
:10528000A079800702D40720BDE8FC9FA068012711
:1052900041194FF0020A81427AD3B5E02068A16833
:1052A000024600F580504389B1FBF3F603FB161666
:1052B000002E6ED1B1FBF3F38078401E034013F053
:1052C000FF0618D129B1606A38B15846FFF798F93E
:1052D00007E0206938B9002100E061691046FFF756
:1052E0000DFA002854D0012833D0411C62D06061EF
:1052F000216901B92061A07940060DD520680123FC
:1053000000F5805059464078A269FFF701FEF0BBD6
:10531000A07920F04000A07161692068FFF7E0F9F2
:10532000B8B130440190206800F580504189B5FB48
:10533000F1F1009171B3721881788A4201D9891B09
:105340000091DDE9003240784146FFF7E1FDF0B918
:1053500003E084F807A0022096E7A1690198081AE3
:10536000009988420CD2216801F580514A8900FBDE
:105370000281584600F0C4FCA07920F04000A071E2
:10538000206800F5805046890098464332E011E0DD
:105390003DE014E0FFE7A169019A91420DD0D4E904
:1053A0000212914209D2407801235946019AFFF72F
:1053B00095FD10B1E771012066E70198A0612068B2
:1053C000A16800F580504089B1FBF0F200FB121299
:1053D000861AAE4200D92E46B1FBF0F200FB121144
:1053E00001EB0B003246414600F08AFCA07940F008
:1053F0004000A071A068B0443044A060D9F800001B
:10540000AD1B3044C9F80000002D7FF447AFD4E94C
:105410000201884200D9E060A07940F02000A0712C
:10542000002031E7802804D30B4A51B1FF2801D96D
:105430000020704702EB4000A0F58050B0F8000F4C
:10544000704732F81130834203D0491C89B2802959
:10545000F7D38031C8B270473A8000080021064B6C
:1054600000E0491C33F81120002A04D08242F8D110
:10547000024830F8110070473A8100081A8300088A
:105480002DE9FF5F4FF0000B0546C0F800B017464E
:10549000084600F07BFA060003D50B2004B0BDE8F7
:1054A000F09FAB4850F826409CB12C6004F5805525
:1054B000287820B16878FFF71FFDC1070BD085F869
:1054C00000B0F0B26870FFF7E7FCC10708D0032016
:1054D000E4E70C20E2E70FB1400704D40020DDE749
:1054E0001FB1400701D50A20D8E741F20A0162182E
:1054F00068780221FFF7E4FC88BB6889B0F5007F7B
:1055000036D3B0F5805F33D8002631462046FEF70B
:10551000EDFF012828D100214FEA0D0204EB011014
:1055200090F8C23100F5DF704BB1037AC67A43EAD6
:105530000663867A407A360446EA0020034342F83E
:105540002130491C0429E9D30027904658F82760E8
:1055500036B131462046FEF7C9FF10B90AE007E030
:1055600002207F1C042FF1D3032801D0F0BB01E0FF
:10557000012093E7B4F80B00B5F80AC060456FD17D
:10558000E08A68B994F8240094F8271094F825204C
:1055900040EA016094F82610090441EA0221084318
:1055A000A861217C8246E970012901D0022957D1E6
:1055B00001FB00F9607BA870C0B1411E08424FD1C9
:1055C000B4F811104FEA5C12B1FBF2F302FB1313B3
:1055D00029815BB9B4F813707FB994F8203094F83E
:1055E000237043EA076794F8223000E038E094F82B
:1055F00021801B0443EA08231F43E38983B3B1FBE3
:10560000F2F803EB09024244974229D3BF1AB7FBD1
:10561000F0F028B3012740F6F678404500D3022782
:105620004FF6F678404500D30327801C3244AA6227
:1056300033446861C5E90763032F13D081B103EBDD
:1056400009016962022F20D000F0010100EB400047
:1056500001EB5000401E6044B0FBFCF1514516D9EF
:105660000D201BE70029FBD194F82C1094F82F2073
:1056700094F82D3041EA026194F82E20120442EA97
:105680000322114380006962E4E74000E2E74FF043
:10569000FF302861E86080206871032F4DD1208E93
:1056A00001284AD12046711C00F03AFBF0BB85F876
:1056B00005B0B4F8FE01A0F52A4155393DD1207856
:1056C000E178627840EA0160A178090441EA0221A8
:1056D00008432049884230D194F8E40194F8E71156
:1056E00094F8E52140EA016094F8E611090441EAE2
:1056F00002210843184988421FD194F8E80194F820
:10570000EB1194F8E92140EA016094F8EA110904E8
:1057100041EA02210843286194F8EC0194F8EF1162
:1057200040EA016094F8EE11090400E005E094F805
:10573000ED2141EA02210843E86005492F70091F65
:105740000888401C0880E8802046FEF747FFC5E631
:1057500010010020525261417272416173B50546D9
:10576000019801782F2901D05C2901D1401C0190BA
:1057700005F580540026A66001980078202805D2FF
:1057800000212846FFF73AFB66617CBD01A9284647
:10579000FFF706F80028F8D12846FFF721F9A1699C
:1057A000C97A28B10428F0D14907EED405207CBD80
:1057B0004907FCD46169C87AC006F7D5206800F0B3
:1057C0004FF9A060E2E7000010B5002821D0114B8E
:1057D0000022001F196803E0814203D80A46496885
:1057E0000029F9D152B11368841A9C4204D100688F
:1057F00018441060104602E0506000E0186039B1B3
:1058000002680B1A934203D10B681A44026049687C
:10581000416010BD140100207CB516461C460546AB
:105820000B2200F06DFA052C11D91A4A0CE0002168
:10583000B61C2346044663F35F044008E30300D527
:105840005440491C1029F4D330880028EFD1072197
:105850004FEA0D0204F00F003030392800D9C01D86
:105860005054491E2409F5D17E205054002000E0F8
:10587000401C884202D22B5C202BF9D1082902D28D
:10588000535C491C00E020232B54401C0828F5D30E
:105890007CBD0000211001002DE9F0470D460746B0
:1058A00002290DD307F580546069A84208D92078F1
:1058B0004FF0FF36012807D0022832D0032844D009
:1058C00001263046BDE8F087618905EB5508B8FB35
:1058D000F1F0216A0144384600F022FA0028F0D1A4
:1058E0006189B8FBF1F201FB128008F1010817F899
:1058F0000090B8FBF1F0216A0144384600F010FA3C
:105900000028DED16189B8FBF1F201FB1280395C1D
:1059100049EA0120E90701D00609D2E7C0F30B06E6
:10592000CFE76089216A4008B5FBF0F001443846B2
:1059300000F0F6F90028C4D161896800B0FBF1F2EB
:1059400001FB120038440688BBE76089216A8008A1
:10595000B5FBF0F00144384600F0E2F90028B0D180
:105960006189A800B0FBF1F201FB12003844017814
:10597000C27841EA026182784078120442EA00204B
:10598000014321F070469CE70020704710B50446A3
:105990004FF0FF302268002A13D0114600E0491C66
:1059A0000B78202B0ED33A2BF9D112F8013B303B68
:1059B0000A2B06D28A4204D1002B02D1491C184678
:1059C000216010BD002010BDF0B500F580532348C4
:1059D0001C68002202EB420550F82560A64209D15E
:1059E00000EB85059F686E68BE4203D12D89DE8875
:1059F000B54202D0521C082AECD3082A18D1002242
:105A000002E0521C082A05D202EB420550F825504C
:105A1000002DF6D1082A13D002EB420540F82540AC
:105A200000EB85049E686660DB8823810023638128
:105A3000002902EB420100EB8101498902D019B132
:105A40000020F0BD491C01E04FF4807102EB4203DD
:105A500000EB83004181501CF0BD0000BC98002089
:105A6000024602F58052488B1278032A02D1898AB5
:105A700040EA014070470000FBF7A2FFFEF7DCFBA5
:105A8000FDF752F8FDF72CF8FDF702F8FDF7F4F8F2
:105A9000FDF716F9FDF736F9FDF756F9FDF776F93A
:105AA000FDF734F8FDF73BFBFDF736FB4FF47A7456
:105AB0002046FBF7ADFCFDF7A7F9FDF701FC2046FA
:105AC000FBF7A6FCFDF70CFE40F6B830FBF7A0FC98
:105AD0000620FBF7C5FF0720FBF7C2FF0820FBF7F6
